:060000000A128A110C280F
:10000800FE00030EF0000A08F1000A128A15792B87
:100018000A128A110F288313C230FD000730FE0030
:10002800EF30FF00B43084000A128A15A8210A12A2
:100038008A116F30FD001730FE00F630FF00653082
:1000480084000A128A15A8210A128A110A128A1132
:10005800FD270A128A11FB00A0308400B4300A166A
:100068008A11DC270A128A114730840065300A1683
:100078008A11DC270A128A11F901FA0183010A128E
:100088008A114628831203136B08BF006C08C0004E
:100098006D08C100C301C30AC2010A128A15C5222C
:1000A8000A128A113F3083120313A4000030A500FE
:1000B800A6010A128A1569260A128A113230831299
:1000C8000313B9003908F20000300A128A15F02229
:1000D8000A128A11343083120313B9003908F20066
:1000E80001300A128A15F0220A128A11323083125C
:1000F8000313B9003908F20002300A128A15F022F7
:100108000A128A11343083120313B9003908F20035
:1001180003300A128A15F0220A128A110A128A1565
:1001280092210A128A11720883120313B90039083E
:10013800C50064304502031CA228A328A728633001
:10014800B9003908C50001300A128A159B220A1223
:100158008A1183120313B9003908C6006430BD0040
:100168000030BE00FF3083120313BD070318BE0A18
:10017800FF30BE073E08803AFF0080307F02031D33
:10018800C72801303D020318CA28CB28B6283E30BC
:10019800831203134606031DD228D328ED281830EE
:1001A800F2008930F3003F300A128A1574220A12CD
:1001B8008A113F3083120313A4000030A5004508BC
:1001C800B9003908A6000A128A1569260A128A1186
:1001D800B32A3D304606031DF228F32821290630AC
:1001E80042020318F828F92821294208B9003907DA
:1001F800B43E840083130008F200840A00088403D4
:10020800F3003F300A128A1574220A128A1101304B
:1002180083120313B9003908C2073F30831203134E
:10022800A4000030A5004508B9003908A6000A1244
:100238008A1569260A128A11B32A3B304606031D1D
:10024800262927294129420803192B292C29412924
:100258000130C2024208B9003907B43E8400831352
:100268000008F200840A00088403F3003F300A12F1
:100278008A1574220A128A1111294303031D45297C
:10028800462985293730460603194B294C29522916
:100298002F304606031D5129522985290A128A152D
:1002A8006B210A128A11A930F6008830F7008030D5
:1002B80083120313B9003908F8000A128A154A2371
:1002C8000A128A11F201C6300A128A1531220A125C
:1002D8008A11F2010F300A128A1531220A128A1184
:1002E800A53083120313B900B90B78297B29023092
:1002F80083120313B9003908C300C401C40A1215D4
:10030800B32A06304306031D8A298B29B32A1F30D6
:100318004606031D90299129B32AEB290A128A154A
:100328006B210A128A117830F6008830F700803085
:1003380083120313B9003908F8000A128A154A23F0
:100348000A128A11083083120313B9003908C3004E
:100358001530B9003908C400B32A2730A400893001
:10036800A5004508B9003908A6000A128A156926A9
:100378000A128A110A128A156B210A128A110A3086
:1003880083120313B9003908C3001730B9003908BC
:10039800C400B32A2D30A4008930A5004508B9004F
:1003A8003908A6000A128A1569260A128A110A1241
:1003B8008A156B210A128A110C3083120313B900B3
:1003C8003908C3001930B9003908C400B32A3C08F9
:1003D800B900BA013A08003A0319F329FE29390885
:1003E800003A03199229013A0319B129033A03196A
:1003F800CE29FE29B32A4508B9003908A7003F309D
:100408000A128A150A260A128A11D12AC301C30AB6
:100418001211F2010C300A128A1531220A128A11BD
:10042800A53083120313B900B90B182A1B2AD12A45
:100438000630B9003908C3001330B9003908C400C0
:100448000A128A156B210A128A11831203131211D8
:10045800F2010C300A128A1531220A128A11A530CB
:1004680083120313B900B90B372A3A2A9228440891
:10047800B9003908A60046080A128A11DB220A12B6
:100488008A1183120313BA00BB013B08003A03190F
:100498004E2AD12A3A08023A03190A2A133A0319AA
:1004A8001C2AD12A4408B9003908A60046080A12AD
:1004B8008A113E270A128A1183120313BA003A08D6
:1004C800BC00D12A4408B9003908A60046080A1217
:1004D8008A1109260A128A11D12A44080A128A1591
:1004E8001E240A128A110A128A156B210A128A110D
:1004F800063083120313B9003908C3001330B9005A
:100508003908C40092280A128A156B210A128A1126
:10051800F2010C300A128A1531220A128A11A5300A
:1005280083120313B900B90B972A9A2A7C2A440824
:10053800B9003908A60046080A128A1191240A123D
:100548008A1183120313BA00BB013B08003A03194E
:10055800AE2AD12A3A08113A0319872AD12A8312D6
:1005680003134308B900BA013A08003A0319BD2A2F
:10057800D12A3908013A0319FF29033A03193B2AFA
:10058800043A0319562A0E3A0319662A023A03193D
:10059800712A063A03199B2AD12AFF3083120313C2
:1005A800B9003908C40092280A128A110C2883124B
:1005B8000313AA002603031DE22AE32AF42A0530BE
:1005C800A7002708D5003330A7002708D300D20199
:1005D800E101E201E301E4013F30A7002708AA0096
:1005E8005508031DF82AF92AFB2A0230902C3730C7
:1005F8002A06031D002B012B252B04305202031859
:10060800062B072B252B3430A7005208613E8400A7
:100618002708831380005208C63EA7002708A400B5
:100628002A300A128A15B7210A128A110130831258
:100638000313A7002708D2070530A7002708D5000D
:10064800452B2F302A06031D2A2B2B2B452B043034
:1006580052020318302B312B452B3230A700520899
:10066800613E84002708831380005208C63EA70015
:100678002708A4002A300A128A15B7210A128A11FB
:100688001A2B04305206031D4A2B4B2B8F2CAB011F
:10069800AC01831203132B080A128A15E1210A12EE
:1006A8008A1183120313A7002B085D3E84002708D4
:1006B800831380000130AB070318AC0A0030AC0785
:1006C8002C08803AFF0080307F02031D6D2B043018
:1006D8002B02031C702B712B4D2B613083120313DB
:1006E800A7002708F2000430F3000030F4005D3062
:1006F8000A128A15E0230A128A1172087304031D6C
:10070800862B872B892B1130902C013083120313F1
:10071800D30230305306031D922B932B0A2CF2017F
:100728000C300A128A1531220A128A11A530831256
:100738000313A700A70B9E2BA12B1230F6008830BD
:10074800F700803083120313A7002708F8000A1265
:100758008A154A230A128A119930F6008830F70060
:10076800C03083120313A7002708F8000A128A155D
:100778004A230A128A113C3083120313A700270860
:10078800D400FE2BCA30A7002708A4000A30F200C4
:100798000030F3005408A800A9012808F40029082B
:1007A800F5000A128A1597270A128A117208303E34
:1007B8000A128A15B7210A128A11CB308312031341
:1007C800A7002708A4000A30F2000030F3005408FC
:1007D800A800A9012808F4002908F5000A128A15BA
:1007E80097270A128A117208303E0A128A15B72111
:1007F8000A128A11831203135408031D042C052CB2
:10080800C62B3330A7002708D3005F2C0A128A159D
:100818006B210A128A11F2010C300A128A15312250
:100828000A128A11A53083120313A700A70B1A2CEA
:100838001D2C8930F6008830F700803083120313AE
:10084800A7002708F8000A128A154A230A128A11F3
:10085800831203135308A700A8012708303EF600A7
:1008680028080318013E003EF700C030A9002908F7
:10087800F8000A128A154A230A128A116730F6000C
:100888008830F700C13083120313A7002708F80047
:100898000A128A154A230A128A114D308312031349
:1008A800A9001930A8004F30A700A70B592CA80B96
:1008B800592CA90B592C0A128A156B210A128A1174
:1008C800A930F6008830F700803083120313A700A0
:1008D8002708F8000A128A154A230A128A11F20117
:1008E800C6300A128A1531220A128A11F2010F3013
:1008F8000A128A1531220A128A11A53083120313AB
:10090800A700A70B852C882C83120313D20105306E
:10091800A7002708D5000130080083120313AA0096
:1009280019302606031D992C9A2CA02CCC01CD0138
:100938000130CA000030CB004D08803AFF008030FB
:100948007F02031DA92C04304C020318AC2CAD2CDB
:10095800D32C831203134A034B04031DB42CB52C68
:10096800D32CCA01CB01C830F6008830F70080309C
:10097800A7002708F8000A128A154A230A128A11C2
:10098800F201C0300A128A1531220A128A11F201C4
:100998000F300A128A1531220A128A11102D831279
:1009A80003134D08803AFF0080307F02031DDE2CC0
:1009B80004304C02031CE12CE22C102D831203138B
:1009C8004A084B04031DE92CEA2C102D0130CA00FB
:1009D8000030CB000A128A156B210A128A114530A1
:1009E800F6008830F700803083120313A700270829
:1009F800F8000A128A154A230A128A11F201C03035
:100A08000A128A1531220A128A11F2010F300A12CB
:100A18008A1531220A128A113730831203132A06E3
:100A2800031D172D182D352D3430A7004C08AB3E6B
:100A380084002708831380004C080339C03EA700B0
:100A48002708A4002A300A128A15B7210A128A1127
:100A5800013083120313CC070318CD0A0030CD07E9
:100A6800502D2F302A06031D3A2D3B2D502D3230A4
:100A7800A7004C08AB3E84002708831380004C086D
:100A88000339C03EA7002708A4002A300A128A1595
:100A9800B7210A128A112C2D08304C064D04031D6B
:100AA800562D572D072EAF30A7002708F200043027
:100AB800F3000030F400AB300A128A15E0230A1262
:100AC8008A1172087304031D6A2D6B2DD52D8312AC
:100AD8000313AB01AC01831203132B08AB3E840054
:100AE80083130008A7002708F2002B080A128A15AA
:100AF800F0220A128A11013083120313AB0703187C
:100B0800AC0A0030AC072C08803AFF0080307F0226
:100B1800031D902D04302B02031C932D942D6F2D53
:100B28000A128A156B210A128A11F2010C300A1274
:100B38008A1531220A128A11A53083120313A700DD
:100B4800A70BA42DA72D3430F6008830F70080308D
:100B580083120313A7002708F8000A128A154A23EC
:100B68000A128A11D730F6008830F700C030831295
:100B78000313A7002708F8000A128A154A230A1245
:100B88008A114D3083120313A9001930A8004F3081
:100B9800A700A70BCD2DA80BCD2DA90BCD2D11305E
:100BA800082E0A128A156B210A128A11F2010C30DA
:100BB8000A128A1531220A128A11A53083120313E8
:100BC800A700A70BE52DE82D5630F6008830F70072
:100BD800803083120313A7002708F8000A128A1529
:100BE8004A230A128A110030F6008830F700C03014
:100BF80083120313A7002708F8000A128A154A234C
:100C08000A128A11C52D0130080083120313B60099
:100C18004E0A031D132E4F0A031D132E142E222EC7
:100C28001030F6008930F700C030A7002708F80018
:100C38000A128A154A230A128A113D2F15302606F0
:100C4800031D272E282E2A2ED001592E2F30360686
:100C5800031D2F2E302E4A2E4E08FF3EA7004F08A8
:100C68000318013EFF3EA8002808803A803C031D77
:100C78003F2E270850020318422E432E4A2E0130D9
:100C880083120313A7002708D007592E3730831281
:100C980003133606031D512E522E592E50080319E0
:100CA800562E572E592E0130D002B701B8010A30FE
:100CB80083120313A7002708F2006E080A128A1588
:100CC800CC210A128A11053E83120313A8002808B2
:100CD800B500370835070A128A15E1210A128A1168
:100CE80083120313A70037082A3E840027088313BA
:100CF80080000130B7070318B80A0030B807380871
:100D0800803AFF0080307F02031D8C2E0A303702A4
:100D1800031C8F2E902E5B2EC03083120313A70066
:100D28002708A4000A30F2000030F3005008A80099
:100D3800A9012808F4002908F5000A128A15522585
:100D48000A128A117208303E0A128A15B7210A124D
:100D58008A11C23083120313A7002708A4002A08A7
:100D68000A128A15B7210A128A11C3308312031393
:100D7800A7002708A4002B080A128A15B7210A120F
:100D88008A11C43083120313A7002708A4003A303D
:100D98000A128A15B7210A128A11C5308312031361
:100DA800A7002708A4002C080A128A15B7210A12DE
:100DB8008A11C63083120313A7002708A4002D0840
:100DC8000A128A15B7210A128A11C730831203132F
:100DD800A7002708A4003A300A128A15B7210A1278
:100DE8008A11C83083120313A7002708A4002E080D
:100DF8000A128A15B7210A128A11C93083120313FD
:100E0800A7002708A4002F080A128A15B7210A127A
:100E18008A11CB3083120313A7002708A4003008D7
:100E28000A128A15B7210A128A11CC3083120313C9
:100E3800A7002708A40031080A128A15B7210A1248
:100E48008A11CE3083120313A7002708A4003208A2
:100E58000A128A15B7210A128A11CF308312031396
:100E6800A7002708A40033080A128A15B7210A1216
:100E78008A11080083120313AA0013302606031DE3
:100E8800462F472F482FD1012F302A06031D4D2FFB
:100E98004E2F5E2F023051020318532F542F5E2F0E
:100EA8000130A7002708D1070A128A156B210A12F8
:100EB8008A116C2F37302A06031D632F642F6C2F7D
:100EC80051080319682F692F6C2F0130D102582F50
:100ED80002308312031351020318732F742FAD2F9E
:100EE8008030A7002708A4002A300A128A15B721E3
:100EF8000A128A11831203135108A7002707653EB7
:100F0800840083130008F600840A00088403F700AD
:100F18008230A9002908F8000A128A154A230A1201
:100F28008A11831203135108A7002707673E84001C
:100F380083130008F600840A00088403F700C2300F
:100F4800A9002908F8000A128A154A230A128A11E8
:100F5800EB2F02305106031DB22FB32FEB2F510890
:100F6800A7002707633E840083130008F600840A5D
:100F780000088403F7008230A9002908F8000A1243
:100F88008A154A230A128A11831203135108A700EB
:100F98002707653E840083130008F600840A0008CA
:100FA8008403F700C230A9002908F8000A128A153C
:100FB8004A230A128A11C03083120313A700270894
:100FC800A4002A300A128A15B7210A128A1183123C
:100FD8000313510808002A348934303489341B3407
:100FE80089341E34893421348934243489340034D2
:040FF800003401348C
:101000002034203420342034613472346534203468
:1010100064346934663466346534723465346E34ED
:1010200074340034203459344F345534203441342E
:1010300052344534203442344C344F3443344B34EE
:10104000453444340034203420342034543449347A
:101050004D34453420342034203420344534203479
:101060002034533450340034703461347334733466
:1010700077346F34723464342034633468346134C8
:101080006E346734653464340034723465342D341E
:1010900065346E3474346534723420346E3465349F
:1010A000773420347034773464340034203420347E
:1010B00062346F347434683420347034613473347F
:1010C000733477346F3472346434733400342034BE
:1010D00061347434743465346D3470347434203451
:1010E000723465346D34613469346E347334003471
:1010F00023342034543449344D344534203420349E
:1011000020342034203445342034203453345034B7
:1011100000342034573452344F344E344734203462
:10112000503441345334533457344F3452344434AC
:10113000003457346134693474342E342E346634B8
:101140006F3472342034363430347334653463345D
:101150000034203445344E34543445345234203431
:10116000503441345334533457344F34523444346C
:1011700000344334683461346E3467346534203469
:1011800050346134733473347734723464340034DB
:10119000203465346E3474346534723420346E34E3
:1011A0006534773420347034773464340034203438
:1011B0002034733475346334633465347334733476
:1011C000663475346C346C347934003420346C34C7
:1011D0006F3467347334203463346C346534613471
:1011E000723465346434003443346C3465346134AF
:1011F000723420346C346F346734003456346934BC
:101200006534773420346C346F34673400342034E0
:101210007334753463346334653473347334003435
:101220004E344F3420344C344F344734533400342C
:1012300043342034003447343134003447343234BA
:1012400000344734333400344734343400344334C6
:101250004C34003447344E3400344334503400347A
:10126000473452340034FF1B3D2983137F18831702
:101270000008840A0319FF0A08007F087F398A00E2
:0A1280000408840A0319FF0A820023
:101294000A168A11ED270A128A150A168A11E427FA
:1012A4000A128A150800F2000A128A1578210A1215
:1012B4008A1572088312031393000800831603131C
:1012C4008801091189100A128A15A7240A128A159D
:1012D4000800F20101300A128A1531220A128A1515
:1012E400A630F600F60B74290000080083160313D9
:1012F40014197D297E29782911081F39031D832992
:101304008429782908008312031312149214FA30E2
:101314008316031392008C14831203131211080012
:10132400831203131F151F199829992995291E083B
:10133400F500831603131E08F4007508F3007408FF
:10134400F20008007E088A007F0882000A128A15CB
:10135400A4210A128A158000840A04087D06031950
:101364000034FF0A0319FE0AA82983120313A500F7
:10137400F20124080A128A1531220A128A15F2018E
:10138400F20A8312031325080A128A1531220A125B
:101394008A150800F500F401751CD129D229D62933
:1013A4007208F3007308F4070310F20D0310F50C30
:1013B4007508031DDE29DF29CE2974080800F3000F
:1013C4006400831603178C18E829E929E2297308B5
:1013D400831203178D003F30F2007208831603173F
:1013E4008C050C14831203170C08080000300A1231
:1013F4008A151D230A128A15F8007808831203132C
:10140400A00020087F39F8007808A0002008F80020
:101414007808F30000300A128A1513220A128A157A
:101424000800F4000A168A11E4270A128A15D0303B
:101434000A128A1555210A128A1574080A128A1585
:1014440055210A128A1573080A128A1555210A129F
:101454008A150A168A11ED270A128A150800F50062
:101464007218352A392A8312031309153C2A831268
:1014740003130911750888008914A630F300F30BCF
:10148400412A00008312031389101B30F4009E309C
:10149400F300F30B4B2AF40B4B2A00000800F30073
:1014A4000A128A1578210A128A15831603139115D4
:1014B4000A128A1578210A128A1583120313130853
:1014C400F2007208F4007303031D692A6A2A6E2A63
:1014D400831603139116712A83160313911211169E
:1014E40074080800F6007608F4007408F500842AED
:1014F4000130F4007408F5070130F2070318F30A09
:101504000030F307730883120313FF00720884008A
:101514000A128A1533210A128A15F4007508840008
:101524007408831380000008031D992A9A2A7A2AD2
:101534000800F3007308031DA02AA12AA62A831217
:10154400031306083F39C42A3F30831203130605E8
:10155400F2003F3072060319B02AB12AB82A7B0878
:101564000319B52AB62AB82AFB01A12A3F30060579
:10157400F2003F307206031DC02AC12AC32AFB01B0
:10158400FB0A3F3008000A128A1560210A128A15E4
:10159400003083120313AB000130AA008630A90087
:1015A400A030A8000A128A15AC230A128A150A125E
:1015B4008A15F8210A128A150A168A11D5270A12E1
:1015C4008A150A168A11CF270A128A150A128A1551
:1015D40085210A128A150B178B170800F40083164D
:1015E40003178C18F62AF72AF12A740883120317B2
:1015F4008D0072088C003F30F300730883160317C4
:101604008C058312031303108B1F092B0A2B0B2B3E
:1016140003148B13831603170C1555308D00AA3051
:101624008D008C140C1183120313031C1A2B1B2B17
:101634001C2B8B170800F6000A168A11E4270A12DD
:101644008A15D0300A128A1555210A128A1576088D
:101654000A128A1555210A128A150A128A154A2174
:101664000A128A15D1300A128A1555210A128A15CE
:1016740000300A128A1551220A128A15F5007508DB
:10168400F7000A168A11ED270A128A15770808004E
:10169400F20178080A128A1531220A128A15682B77
:1016A400F201F20A7708FF00760884000A128A150C
:1016B40033210A128A150A128A1531220A128A154E
:1016C4000130F6070318F70A0030F707770883128A
:1016D4000313FF00760884000A128A1533210A12C4
:1016E4008A15003A031D772B782B522B080083129E
:1016F40003138C1C7E2B7F2BA52B0130F9070318B9
:10170400FA0A0030FA07E2307906043003197A063F
:10171400031D8D2B8E2BA42BF901FA0154080319F8
:10172400942B952B982B0130D402A42B5408031D21
:101734009C2B9D2BA42B55080319A12BA22BA42B66
:101744000130D5028C1071088A00700E8300FE0EE1
:101754007E0E09008312031394152808AC0029088F
:10176400AD002A08AE002B08AF0002300310AC0D08
:10177400AD0DAE0DAF0DFF3E031DB82B2F08A3001A
:101784002E08A2002D08A1002C08A0000130A700FB
:101794003130A6002D30A5000030A4000A128A15AD
:1017A4002F270A128A15831203132008FF3E83167B
:1017B400031393008312031394160800F7000D2CEF
:1017C40077088400831300080319E92BEA2BF62B0E
:1017D400720884000008F500770884000008750684
:1017E4000319F52BF62B052C720884000008F5006C
:1017F400770884000008F60075087602F200F30109
:10180400031CF3031D2C0130F5007508F7070130A4
:10181400F5007508F2070130F3020030031CF403ED
:10182400F402730A031D1A2C740A031D1A2C1B2CB0
:10183400E22BF201F301080083120313A300173013
:101844002306031D262C272C5B2CFF30CE00FF30F3
:10185400CF00FF30A0002008EE00E630F60088300C
:10186400F7008030A0002008F8000A128A154A23E5
:101874000A128A150730F6008930F700C030831247
:101884000313A0002008F8000A128A154A230A123A
:101894008A154D3083120313A2001930A1004F3072
:1018A400A000A00B532CA10B532CA20B532C1130D2
:1018B4005C2C2230080083120313A0002008F600D9
:1018C4007608A100892C0130F4020030031CF503D2
:1018D400F5027308F7007208F600F20A0319F30A16
:1018E4007708FF00760884000A128A1533210A1249
:1018F4008A15F800210884000130A10778088313B1
:1019040080000008031D872C882C892C982C7408CF
:101914007504031D8E2C8F2C652C982C21088400B3
:10192400831380010130F6007608A1070130F40228
:101934000030031CF503F502740A031DA52C750A77
:10194400031DA52CA62C902C0800C330F700CD3025
:10195400F600F60BAB2CF70BAB2CF20133300A126A
:101964008A1531220A128A151B30F7009E30F600C0
:10197400F60BBA2CF70BBA2C0000F20133300A1222
:101984008A1531220A128A15A630F600F60BC82CE5
:101994000000F20133300A128A1531220A128A1524
:1019A400D32CD42C0000F20138300A128A153122CB
:1019B4000A128A15A630F600F60BDE2C0000F2019E
:1019C40001300A128A1531220A128A15A630F6004D
:1019D400F60BEA2C0000F2010C300A128A153122AF
:1019E4000A128A15A630F600F60BF62C0000080041
:1019F4000130F600760883120313EE070A306E06F0
:101A0400031D052D062D072DEE010A30F60076087C
:101A1400F2006E080A128A15CC210A128A15053EB4
:101A2400F700770883120313A000A101A201332D4C
:101A34002108A03E84000008F6007608F200200881
:101A44000A128A15F0220A128A150130F600760865
:101A540083120313A0070130A1070318A20A003060
:101A6400A2072108A03E840083130008031D3B2D18
:101A74003C2D1A2D4F08803AFF0080307F02031D51
:101A8400452D09304E020318482D492D512D0130A2
:101A940083120313CE070318CF0A0030CF070800C0
:101AA400F801F51F562D572D5E2DF409F509F40A9A
:101AB4000319F50AF801F80AF31F612D622D672D49
:101AC400F209F309F20A0319F30A720873040319F9
:101AD4006C2D6D2D9C2DF701F70A7B2D0130031021
:101AE400F20DF30DFF3E031D712D0130F600760853
:101AF400F707F31F7E2D7F2D702D73087502031DCC
:101B0400852D72087402031C882D892D8F2D72086F
:101B1400F4027308031CF503F50201300310F30CFF
:101B2400F20CFF3E031D902D0130F702031D9B2D87
:101B34009C2D7F2D78080319A02DA12DA62DF40925
:101B4400F509F40A0319F50A7508F3007408F2009C
:101B5400080002300A128A151D230A128A158312FC
:101B64000313A0002008C70001300A128A151D23A0
:101B74000A128A1583120313A0002008C80000303B
:101B84000A128A151D230A128A1583120313A00050
:101B94002008C9004708A00004300310A00CFF3E31
:101BA400031DCF2D20080339303EA1002108D600A3
:101BB40047080F39303EA0002008D7004808A0008D
:101BC40004300310A00CFF3E031DE32D2008073949
:101BD400303EA1002108D80048080F39303EA0004B
:101BE4002008D9004908A00004300310A00CFF3ECF
:101BF400031DF72D20080739303EA1002108DA0023
:101C040049080F39303EA0002008DB00DC01080041
:101C140083120313AB002330F6008830F7008030C2
:101C2400A8002808F8000A128A154A230A128A15FD
:101C34000A128A15C9260A128A15831203132B085D
:101C4400F6000030F700CB30A8002808F8000A128C
:101C54008A154A230A128A15CE3083120313A80068
:101C64002808A4000A30F2000030F3002708A90075
:101C7400AA012908F4002A08F5000A128A159727F0
:101C84000A128A157208303E0A128A15B7210A12FE
:101C94008A15CF3083120313A8002808A4000A3041
:101CA400F2000030F3002708A900AA012908F40073
:101CB4002A08F5000A128A1552250A128A15720892
:101CC400303E0A128A15B7210A128A1508000A1230
:101CD4008A15AB250A128A155630F2000030F3003B
:101CE4000630F4000030F500A0300A128A155D2495
:101CF4000A128A15831203132408F2002508F3003C
:101D04000230F4000030F500A6300A128A155D2472
:101D14000A128A150A30F2000030F300831203130A
:101D24002608A700A8012708F4002808F5000A12CD
:101D34008A1597270A128A157208303E83120313F4
:101D4400A900290883160313A8000A30F200003002
:101D5400F300831203132608A700A8012708F40040
:101D64002808F5000A128A1552250A128A157208E3
:101D7400303E83120313A900290883160313A90014
:101D8400AA010A128A15FA240A128A1508000A12EC
:101D94008A15AB250A128A15C23083120313A600D2
:101DA4002608A40056080A128A15B7210A128A15B1
:101DB400C33083120313A6002608A40057080A128E
:101DC4008A15B7210A128A15C43083120313A60098
:101DD4002608A4003A300A128A15B7210A128A1575
:101DE400C53083120313A6002608A40058080A125B
:101DF4008A15B7210A128A15C63083120313A60066
:101E04002608A40059080A128A15B7210A128A154D
:101E1400C73083120313A6002608A4003A300A121E
:101E24008A15B7210A128A15C83083120313A60033
:101E34002608A4005A080A128A15B7210A128A151C
:101E4400C93083120313A6002608A4005B080A12F3
:101E54008A15B7210A128A1508000030F6000030EE
:101E6400F5000030F4000030F3008312031323085C
:101E74002204210420040319402F412F8E2FF7013F
:101E8400F70A512F0130F2000310A00DA10DA20D8D
:101E9400A30DF20B462F0130F2007208F707A31FBF
:101EA400542F552F442F0130F2000310F30DF40D7D
:101EB400F50DF60DF20B572F23082702031D6C2F87
:101EC40022082602031D6C2F21082502031D6C2FF6
:101ED40020082402031C6F2F702F7F2F2008A402D8
:101EE4002108031C210FA5022208031C220FA602AD
:101EF4002308031C230FA702731401300310A30C3F
:101F0400A20CA10CA00CFF3E031D802F0130F70290
:101F1400031D8D2F8E2F552F7608A3007508A20060
:101F24007408A1007308A000080083120313A10120
:101F3400F31F9D2F9E2FA52FF209F309F20A03190F
:101F4400F30AA101A10AF51FA82FA92FB22FF409A2
:101F5400F509F40A0319F50A0130F6007608A1061A
:101F6400A201A301720873040319B92FBA2FF12F28
:101F7400A001A00AC82F01300310F20DF30DFF3E9B
:101F8400031DBE2F0130F6007608A007F31FCB2FE8
:101F9400CC2FBD2F01300310A20DA30DFF3E031D56
:101FA400CD2F73087502031DD92F72087402031C08
:101FB400DC2FDD2FE42F7208F4027308031CF503F1
:101FC400F502221401300310F30CF20CFF3E031D42
:101FD400E52F0130A002031DF02FF12FCC2F210893
:101FE4000319F52FF62FFB2FA209A309A20A03193F
:0C1FF400A30A2308F3002208F2000800F2
:102F9E008316031306083F388600080083160313B2
:102FAE009F17831203131F14080064008001840A04
:102FBE000406031900340406DD2F0A128A1578213F
:102FCE000A168A1183160313111408000A128A15A1
:102FDE0078210A168A118316031311150800FE3480
:102FEE008834F4348834B93488344F344E34003451
:022FFE00FF349E
:08400000FF3FFF3FFF3FFF3FC0
:02400E00FB3F76
:00000001FF
